:060000000A128A110C280F
:10000800FE00030EF6000A08F7000A128A11512DA5
:100018000A128A110F28F801F901FA01FB01FC0103
:10002800FD018313433084005E300A128A15B52718
:100038000A128A1183010A128A11A829831203134A
:10004800BD002F30B80093292530400603192D280C
:100058002E2838283D08840040088313800001308A
:10006800B5003508BD079329BE01BF01B901412874
:1000780039150130B5003508AE072E0884000A127C
:100088008A1140260A128A11B500B6013608003ACC
:1000980003194F2854283508303A03193C285428A6
:1000A8002E0884000A128A1140260A128A110A129E
:1000B8008A15D4270A128A11031C63286428AA28DF
:1000C80083120313BE01BF010A3083120313A00079
:1000D8000030A1003F08A3003E08A2000A128A11BE
:1000E80052270A128A11831203132108BF0020081D
:1000F800BE002E0884000A128A1140260A128A11AC
:10010800D03EB500FF3003180030B6003508BE07F2
:100118000318BF0A3608BF070130B5003508AE0717
:100128002E0884000A128A1140260A128A110A121D
:100138008A15D4270A128A110318A328A428682824
:10014800AA28C030B5003508B904C6280130831282
:100158000313AE07FF302E0784000A128A114026C7
:100168000A128A11C000B500B6013608003A031910
:10017800BE2893293508003A0319A329753A0319AB
:10018800A52893293808840083130008BA00840A34
:100198000008BB000230B5003508B807C001C00A26
:1001A8004008B5003507013E84000A128A1140262E
:1001B8000A128A11B6000A128A1140260A128A11F6
:1001C800B70037083B02031DEB2836083A0203182C
:1001D800EE28EF28F028FA280130B5003508C007C6
:1001E80005304006031DF928FA28D4283F08803A2C
:1001F800803C031D01293E084002031804290529F3
:100208001129831203134008B500B6013508BE0250
:100218003608031CBF03BF02152983120313BE014E
:10022800BF01391D1829192935293E083F0403192A
:100238001E291F2950293D0884003030831380006F
:100248000130B5003508BD07FF30BE070318BF0AE7
:10025800FF30BF073E083F04031D332934291F29F7
:1002680050293E083F0403193A293B2950293D08E3
:1002780084002030831380000130B5003508BD07A5
:10028800FF30BE070318BF0AFF30BF073E083F0410
:10029800031D4F2950293B294008BC008A290A30F0
:1002A800A8000030A9003C08B5003507013E8400CD
:1002B8000A128A1140260A128A11A0000A128A110B
:1002C80040260A128A11A1003B08A3003A08A2009E
:1002D8000A128A11AA250A128A1183120313210805
:1002E800AB002008AA000A128A1177260A128A117E
:1002F800831203132808303EC0003D0884004008DC
:10030800831380000130B5003508BD07FF30B50004
:100318003508BC073C0A031D92299329532901304B
:10032800AE07FF302E0784000A128A1140260A12EF
:100338008A11C0004008031DA229A32928283D08C6
:1003480084008313800108000A128A1124270A12E4
:100358008A11003083120313A000A1000A128A1127
:1003680019230A128A110A128A11F9230A128A1108
:100378000A128A15C7270A128A1183120313A401C5
:10038800A40A01300A128A1179270A128A1119302F
:1003980083120313A3008030A4000A128A11F025E7
:1003A8000A128A11831203135808B0005708AF00C5
:1003B8000030B100B200FF30B3000030B4000030AC
:1003C800B500B6006430B7000030B8000A128A11D0
:1003D800EF260A128A11831203133008D6002F0859
:1003E800D5006430A6000030A7005608A1005508C3
:1003F800A0000530A2000030A3000A128A1152277B
:100408000A128A11831203132108A9002008A800E0
:100418000A128A118D240A128A11831203132708DB
:10042800D2002608D1000A30AF000030B0000A30F0
:10043800A6000030A7005608A1005508A000053006
:10044800A2000030A3000A128A1152270A128A1148
:10045800831203132108A9002008A8000A128A1190
:100468008D240A128A11831203132708B200260862
:10047800B1000A128A11F6240A128A118312031390
:100488003008D0002F08CF000A30AF000030B0008D
:100498005608A1005508A0000530A2000030A300AE
:1004A8000A128A1152270A128A1183120313210889
:1004B800B2002008B1000A128A11F6240A128A1121
:1004C800831203133008CE002F08CD00A401A40A1C
:1004D80002300A128A1179270A128A1125308312EA
:1004E8000313AE005208B0005108AF005008B20024
:1004F8004F08B1004E08B4004D08B30059300A1235
:100508008A1122200A128A11593083120313A30078
:100518000030A4000A128A11F0250A128A1131301B
:1005280083120313C200B130C100C10B992AC20B58
:10053800992A9E2A0C3083120313A40002300A124F
:100548008A1179270A128A112D3083120313AE00FB
:100558007908B0007808AF005D300A128A112220AD
:100568000A128A115D3083120313A3000030A4001D
:100578000A128A11F0250A128A11831203139F188E
:10058800C62AC72AD32A9F14113083120313C20024
:100598003930C100C10BCE2AC20BCE2AD32A0B3068
:1005A8000A128A119B270A128A118312031351080F
:1005B800303E9900043083120313C2003D30C1005D
:1005C800C10BE42AC20BE42A2E30831203139900CC
:1005D800043083120313C2003D30C100C10BF22A5C
:1005E800C20BF22A831203134F08303E99000430DD
:1005F80083120313C2003D30C100C10B012BC20B93
:10060800012B831203134D08303E990021308312C9
:100618000313C2007530C100C10B102BC20B102B85
:10062800152BD6290A128A110C28831203131F08C6
:100638003F3980389F00C3309F05831603139F13EB
:100648001F129F12831203131F140C138316031710
:1006580088018901C52B8316031708148316031311
:100668000514F82B1F08C33904389F008316031795
:100678008814831603138514F82B1F08C339083808
:100688009F00831603170815831603130515F82B07
:100698001F08C3390C389F00831603178815831663
:1006A80003138515F82B1F08C33910389F008316CC
:1006B80003170816831603138516F82B1F08C3396A
:1006C80014389F008316031788168316031309141A
:1006D800F82B1F08C33918389F008316031708170B
:1006E800831603138914F82B1F08C3391C389F007D
:1006F800831603178817831603130915F82B1F0889
:10070800C33920389F00831603170914831603136F
:100718000615F82B1F08C33924389F0083160317C2
:100728008914831603138615F82B1F08C339283834
:100738009F00831603170915831603138614F82BD5
:100748001F08C3392C389F00831603178915831691
:1007580003130616F82B1F08C33930389F00831679
:1007680003170916831603130614F82B1F08C33939
:1007780034389F00831603178916831603138616C9
:10078800F82B831203132108003A0319CC2BF82BFA
:100798002008003A03192F2B013A0319362B033A84
:1007A8000319412B013A03194C2B073A0319572B0C
:1007B800013A0319622B033A03196D2B013A031905
:1007C800782B0F3A0319832B013A03198E2B033A1E
:1007D8000319992B013A0319A42B073A0319AF2BD4
:1007E800013A0319BA2BF82B080000300A128A11B3
:1007F800B3260A128A11023083120313A60011309D
:10080800A500B630A400A40B072CA50B072CA60B3B
:10081800072C000030300A128A11BC270A128A11EC
:100828000D3083120313A500FB30A400A40B1A2C6F
:10083800A50B1A2C30300A128A11BC270A128A1109
:10084800023083120313A6001130A500B630A400AD
:10085800A40B2C2CA50B2C2CA60B2C2C0000303018
:100868000A128A11BC270A128A1102308312031352
:10087800A6001130A500B630A400A40B412CA50B8E
:10088800412CA60B412C000038300A128A11BC27D3
:100898000A128A11233083120313A400A40B522CCA
:1008A800552C08300A128A11BC270A128A112330E3
:1008B80083120313A400A40B5F2C622C01300A12CC
:1008C8008A11BC270A128A110D3083120313A5005E
:1008D800FB30A400A40B6E2CA50B6E2C06300A125C
:1008E8008A11BC270A128A11233083120313A40029
:1008F800A40B7C2C7F2C0C300A128A11BC270A12FC
:100908008A11233083120313A400A40B892C8C2C86
:10091800080083120313AC01A71F932C942C9B2C63
:10092800A609A709A60A0319A70AAC01AC0AA91FB8
:100938009E2C9F2CA82CA809A909A80A0319A90A62
:100948000130AA002A08AC06AD01AE01260827042A
:100958000319AF2CB02CE72CAB01AB0ABE2C01302D
:100968000310A60DA70DFF3E031DB42C0130AA00ED
:100978002A08AB07A71FC12CC22CB32C01300310C7
:10098800AD0DAE0DFF3E031DC32C27082902031D24
:10099800CF2C26082802031CD22CD32CDA2C2608AC
:1009A800A8022708031CA903A9022D14013003106B
:1009B800A70CA60CFF3E031DDB2C0130AB02031D68
:1009C800E62CE72CC22C2C080319EB2CEC2CF12C70
:1009D800AD09AE09AD0A0319AE0A2E08A7002D0805
:1009E800A600080083120313B501B21FFC2CFD2CCE
:1009F800042DB109B209B10A0319B20AB501B50A41
:100A0800B01F072D082D0D2DAF09B009AF0A031926
:100A1800B00A2F0830040319122D132D422DB401EA
:100A2800B40A212D01300310AF0DB00DFF3E031D98
:100A3800172D0130B3003308B407B01F242D252D1E
:100A4800162D30083202031D2B2D2F083102031CEE
:100A58002E2D2F2D352D2F08B1023008031CB2037F
:100A6800B20201300310B00CAF0CFF3E031D362D4F
:100A78000130B402031D412D422D252D35080319DF
:100A8800462D472D4C2DB109B209B10A0319B20AF6
:100A98003208B0003108AF000800831203130C1F9E
:100AA800562D572D672D0A128A15BD270A128A114D
:100AB800710883120313C4007008C3004408D800E7
:100AC8004308D7000C138C1E6A2D6B2DA32D8C1296
:100AD8000430F5003D30F400F40B702DF50B702D4B
:100AE800752D3D30831203131A06031D7C2D7D2DB1
:100AF8008C2D780A7904031D822D832D862DF8010B
:100B0800F9018C2D0130F8070318F90A0030F907AC
:100B18002D301A06031D912D922DA32D78087904E6
:100B2800031D972D982D9D2DFF30F8000030F900FA
:100B3800A32DFF30F8070318F90AFF30F9077708E3
:100B48008A00760E8300FE0E7E0E090083120313C0
:100B5800A501A601200821040319B32DB42DEB2DFE
:100B6800A701A70AC22D01300310A00DA10DFF3E59
:100B7800031DB82D0130A4002408A707A11FC52D07
:100B8800C62DB72D01300310A50DA60DFF3E031D80
:100B9800C72D21082302031DD32D20082202031C80
:100BA800D62DD72DDE2D2008A2022108031CA30371
:100BB800A302251401300310A10CA00CFF3E031D55
:100BC800DF2D0130A702031DEA2DEB2DC62D2608C7
:100BD800A1002508A000080083120313A801A90199
:100BE800192E28082307A6002408A5000318A50A1B
:100BF800A81FFF2DA503831203132508A7002708A4
:100C0800FF00260884000A128A1136260A128A1161
:100C18000A128A15E8270A128A110130831203136F
:100C2800A8070318A90A0030A90728082307A6005F
:100C38002408A5000318A50AA81F232EA5038312BC
:100C480003132508A7002708FF00260884000A12B6
:100C58008A1136260A128A11003A031D342E352EBF
:100C6800F52D0800FF1B402E83137F1883170008FB
:100C7800840A0319FF0A080006308A000408840A57
:100C880082070034013400340A34003464340034F8
:100C9800E8340334103427340A340D3420345634FD
:100CA8006F346C34743461346A3465343A340A34D9
:100CB8000D34003456343134203420342034203478
:100CC80043346F346E3474343A3400342534753414
:100CD8002E342534753425347534003425343034B5
:100CE8003334753400348312031328082904031994
:100CF8007E2E7F2EAE2EAD01AD0A8D2E0130031053
:100D0800A80DA90DFF3E031D832E0130AC002C0851
:100D1800AD07A91F902E912E822E29082B02031DA4
:100D2800972E28082A02031C9A2E9B2EA12E2808EB
:100D3800AA022908031CAB03AB0201300310A90C5B
:100D4800A80CFF3E031DA22E0130AD02031DAD2EDF
:100D5800AE2E912E2B08A9002A08A800080083129D
:100D68000313A000201CB92EBA2EBC2E0614BD2ECB
:100D78000610A01CC02EC12EC32E8614C42E8610A9
:100D8800201DC72EC82ECA2E0615CB2E0611A01D53
:100D9800CE2ECF2ED12E8615D22E8611201ED52EE0
:100DA800D62ED82E0616D92E0612A01EDC2EDD2E23
:100DB800DF2E8616E02E8612201FE32EE42EE62E66
:100DC8000617E72E0613A01FEA2EEB2EED2E861728
:100DD800EE2E861308008312031331083302A6008F
:100DE8003208031C320A3402A70031082F02A0007F
:100DF8003208031C320A3002A10035083702A2006B
:100E08003608031C360A3802A3000A128A11522730
:100E18000A128A11831203132108A9002008A800C6
:100E28000A128A118D240A128A11831203133508B3
:100E38002607AF0036080318360A2707B00008004F
:100E48008316031789018316031385018601880118
:100E580083120313850186018801831603130F0883
:100E68008F3940388F000F140C170B178B178030F1
:100E780083120313A0002530A1000A128A11F1275A
:100E88000A128A11803083120313A0002530A100B2
:100E98000A128A11D8270A128A110800831203132A
:100EA800A401A501201C592F5A2F602F2208A4073E
:100EB8000318A50A2308A50701300310A20DA30DE6
:100EC800FF3E031D612F01300310A10CA00CFF3E53
:100ED800031D682F20082104031D732F742F562F1C
:100EE8002508A1002408A000080083120313A50008
:100EF8002503031D802F812F8B2F24087F3EA600FA
:100F080026080A128A11BC270A128A119A2F02305F
:100F18002506031D902F912F9A2F2408BF3EA60067
:100F280026080A128A11BC270A128A11080083129D
:100F38000313A100AF2F0C1EA22FA32F9F2F210850
:100F480084000A128A1140260A128A119900013077
:100F5800A0002008A107210884000A128A1140264F
:100F68000A128A11003A031DBA2FBB2F9F2F0800BF
:100F780083120313A300881323080A128A11B326C5
:100F88000A128A118312031308170B3083120313F2
:100F9800A2006130A100A10BCF2FA20BCF2FD42F1D
:100FA80083120313081308008030831203132006EA
:100FB800253003192106031DE22FE32FF02F831696
:100FC800031318121815831603178715193083167B
:100FD800031399009A0198160800803083120313AE
:100FE8002006253003192106031DFB2FFC2FFF2F98
:080FF8009817181318160800E1
:101F6A0064008001840A0406031900340406B62FAB
:101F7A00831203131E08F200F3017208F0007308BB
:101F8A00F100080000300A128A11BC270A128A15C9
:101F9A0001300A128A11BC270A128A150800831214
:101FAA000313A100A0013A3021020318DD2FDE2F0E
:101FBA00E62F30302102031CE32FE42FE62FA00185
:101FCA00A00A200C080083120313A2008817220813
:101FDA000A128A11B3260A128A15831203130817E2
:101FEA00193083120313A100A10BF92FFC2F8312BE
:061FFA00031308130800A8
:08400000FF3FFF3FFF3FFF3FC0
:04400E00D420FF3F7C
:00000001FF
