:060000000A128A110C280F
:10000800FE00030EF4000A08F5000A128A11C52B37
:100018000A128A110F28F601F701F801F901831273
:100028000313B201B301B401B50183010A128A11A5
:10003800FD28831203131F083F3980389F00C330FF
:100048009F05831603139F131F129F128312031316
:100058001F140C138316031788018901C9288316F6
:1000680003170814831603130514FC281F08C33943
:1000780004389F0083160317881483160313851406
:10008800FC281F08C33908389F0083160317081572
:10009800831603130515FC281F08C3390C389F0065
:1000A800831603178815831603138515FC281F0864
:1000B800C33910389F0083160317081683160313D5
:1000C8008516FC281F08C33914389F0083160317A8
:1000D8008816831603130914FC281F08C339183817
:1000E8009F00831603170817831603138914FC2827
:1000F8001F08C3391C389F008316031788178316F7
:1001080003130915FC281F08C33920389F008316DC
:1001180003170914831603130615FC281F08C3398F
:1001280024389F0083160317891483160313861532
:10013800FC281F08C33928389F00831603170915A0
:10014800831603138614FC281F08C3392C389F0014
:10015800831603178915831603130616FC281F0830
:10016800C33930389F008316031709168316031303
:100178000614FC281F08C33934389F008316031758
:100188008916831603138616FC2883120313210885
:10019800003A0319D028FC282008003A031933280C
:1001A800013A03193A28033A03194528013A031971
:1001B8005028073A03195B28013A03196628033ABD
:1001C80003197128013A03197C280F3A0319872863
:1001D800013A03199228033A03199D28013A031991
:1001E800A828073A0319B328013A0319BE28FC289E
:1001F80008000A128A1166230A128A110A128A1141
:10020800FB210A128A110A128A11E0230A128A11A2
:1002180083120313A401A40A01300A128A11B82216
:100228000A128A1101300A128A113D230A128A1110
:1002380083120313A401A40A02300A128A11B822F5
:100248000A128A11643083120313A0000030A1003F
:100258007708A3007608A2000A128A1192210A12CE
:100268008A11831203132008303E0A128A110423CC
:100278000A128A110A3083120313A9000030AA0057
:100288000A30A0000030A1007708A3007608A20079
:100298000A128A1192210A128A1183120313210861
:1002A800AC002008AB000A128A115D220A128A11DA
:1002B800831203132908303E0A128A1104230A12F2
:1002C8008A110A3083120313A9000030AA007708A4
:1002D800AC007608AB000A128A115D220A128A1154
:1002E800831203132908303E0A128A1104230A12C2
:1002F8008A11831203139F18822983291C299F14AA
:10030800823083120313B100DD30B000B00B8A29AC
:10031800B10B8A291C290A128A110C28831203138B
:10032800A601A11F98299929A029A009A109A00A15
:100338000319A10AA601A60AA31FA329A429AD2966
:10034800A209A309A20A0319A30A0130A4002408D8
:10035800A606A701A801200821040319B429B52974
:10036800EC29A501A50AC32901300310A00DA10D90
:10037800FF3E031DB9290130A4002408A507A11FC9
:10038800C629C729B82901300310A70DA80DFF3EBB
:10039800031DC82921082302031DD429200822028D
:1003A800031CD729D829DF292008A2022108031C09
:1003B800A303A302271401300310A10CA00CFF3ED5
:1003C800031DE0290130A502031DEB29EC29C729EB
:1003D80026080319F029F129F629A709A809A70A67
:1003E8000319A80A2808A1002708A000080000305F
:1003F8000A128A1189230A128A11343083120313CC
:10040800A500F130A400A40B072AA50B072A033086
:100418000A128A11A9230A128A110D3083120313B2
:10042800A500FB30A400A40B172AA50B172A03303C
:100438000A128A11A9230A128A111D308312031382
:10044800A5009030A400A40B272AA50B272A00009A
:1004580003300A128A11A9230A128A1102300A12D9
:100468008A11A9230A128A1102300A128A11A923B1
:100478000A128A1108300A128A11A9230A128A114B
:1004880000300A128A11A9230A128A110C300A12A2
:100498008A11A9230A128A1100300A128A11A92383
:1004A8000A128A1106300A128A11A9230A128A111D
:1004B800080083120313AF01AC1F632A642A6B2A56
:1004C800AB09AC09AB0A0319AC0AAF01AF0AAA1F02
:1004D8006E2A6F2A742AA909AA09A90A0319AA0A5D
:1004E80029082A040319792A7A2AA92AAE01AE0A08
:1004F800882A01300310A90DAA0DFF3E031D7E2A8C
:100508000130AD002D08AE07AA1F8B2A8C2A7D2A40
:100518002A082C02031D922A29082B02031C952A5B
:10052800962A9C2A2908AB022A08031CAC03AC02B1
:1005380001300310AA0CA90CFF3E031D9D2A0130AF
:10054800AE02031DA82AA92A8C2A2F080319AD2A4E
:10055800AE2AB32AAB09AC09AB0A0319AC0A2C08BA
:10056800AA002B08A900080083120313A60026037B
:10057800031DBF2AC02ADF2A24087F3EA9002908B4
:10058800A50004300310A50CFF3E031DC62A25084C
:10059800A70029080F39A80027080A128A11A923D9
:1005A8000A128A118312031328080A128A11A9232E
:1005B8000A128A11032B02302606031DE42AE52AB3
:1005C800032B2408BF3EA9002908A5000430031006
:1005D800A50CFF3E031DEB2A2508A70029080F39A3
:1005E800A80027080A128A11A9230A128A1183125D
:1005F800031328080A128A11A9230A128A1108006B
:1006080083120313A40024080F39A2002408F03928
:10061800A30008152308A10004300310A10CFF3E15
:10062800031D112B21080A128A1189230A128A1123
:10063800831203138815193083120313A100A10B29
:10064800232B262B83120313881122080A128A11DE
:1006580089230A128A118312031388151930831209
:100668000313A100A10B362B392B83120313881116
:10067800080083120313A500A601A701582B26081A
:10068800250784000A128A11ED230A128A110A1218
:100698008A1104230A128A11013083120313A60750
:1006A8000318A70A0030A7072608250784000A129E
:1006B8008A11ED230A128A11003A031D642B652B57
:1006C800432B08008316031788018316031385013B
:1006D800870188018B150B178B170B100C178312CA
:1006E800031385018601870188017030831603137F
:1006F8008F040F14003083120313A000A1000A1204
:100708008A111D200A128A11080083120313A000FF
:10071800201C8F2B902B922B0816932B0812A01CB1
:10072800962B972B992B88169A2B8812201D9D2B78
:100738009E2BA02B0817A12B0813A01DA42BA52BBB
:10074800A72B8817A82B8813080083120313A3006C
:10075800081123080A128A1189230A128A1183129E
:10076800031388150B3083120313A2006130A10014
:10077800A10BBC2BA20BBC2BC12B8312031388111A
:100788000800831203130C1FCA2BCB2BD82B0A1279
:100798008A11F7230A128A117108F7007008F60007
:1007A80076088312031387000C1375088A00740EE9
:1007B8008300FE0E7E0E090000300A128A11A9235A
:1007C8000A128A1101300A128A11A9230A128A11FF
:1007D800080003308A000408840A82070034413480
:1007E800443443340034831203131E08F200F30127
:0A07F8007208F0007308F100080019
:08400000FF3FFF3FFF3FFF3FC0
:04400E00D420FF3F7C
:00000001FF
